:100000000C942A000C9434000C9434000C943400AA
:100010000C9434000C9434000C9434000C94340090
:100020000C9434000C9434000C9434000C94340080
:100030000C9434000C9434000C9434000C94340070
:100040000C9434000C9434000C9434000C94340060
:100050000C94340011241FBECFE5D8E0DEBFCDBF25
:100060000E9436000C94BF010C940000CF93DF93E4
:100070001F92CDB7DEB781E00E9483010E94730119
:100080001982CE0101960E94B8018823D1F389819B
:10009000823369F018F4813331F0F3CF833359F0B0
:1000A000843369F0EECF80E00E944301EACF81E023
:1000B0000E944301E6CF82E00E944301E2CF80E04C
:1000C0000E945B0181E00E945B0182E00E945B0173
:1000D000D8CF813001F130F08230B1F1833009F4B2
:1000E0004CC0089541110CC02AB381E090E002C0D9
:1000F000880F991F6A95E2F7809582238ABB08953D
:100100002AB381E090E002C0880F991F6A95E2F758
:10011000822B8ABB089541110CC027B381E090E087
:1001200002C0880F991F6A95E2F78095822387BBEA
:10013000089527B381E090E002C0880F991F6A9567
:10014000E2F7822B87BB089541110CC024B381E0F4
:1001500090E002C0880F991F6A95E2F7809582238C
:1001600084BB089524B381E090E002C0880F991FFA
:100170006A95E2F7822B84BB089541110CC021B32C
:1001800081E090E002C0880F991F6A95E2F78095A0
:10019000822381BB089521B381E090E002C0880FE3
:1001A000991F6A95E2F7822B81BB0895813001F196
:1001B00030F08230B1F1833009F44CC00895413001
:1001C00059F42BB381E090E002C0880F991F6A9523
:1001D000E2F7822B8BBB08952BB381E090E002C045
:1001E000880F991F6A95E2F7809582238BBB08954B
:1001F000413059F428B381E090E002C0880F991F84
:100200006A95E2F7822B88BB089528B381E090E0DD
:1002100002C0880F991F6A95E2F78095822388BBF8
:100220000895413059F425B381E090E002C0880F71
:10023000991F6A95E2F7822B85BB089525B381E06B
:1002400090E002C0880F991F6A95E2F7809582239B
:1002500085BB0895413059F422B381E090E002C09B
:10026000880F991F6A95E2F7822B82BB089522B30B
:1002700081E090E002C0880F991F6A95E2F78095AF
:10028000822382BB0895813051F018F0823069F0EA
:10029000089541E062E082E00E94D600089541E0C6
:1002A00067E082E00E94D600089541E063E083E0C9
:1002B0000E94D6000895813051F018F0823069F024
:1002C000089540E062E082E00E94D600089540E098
:1002D00067E082E00E94D600089540E063E083E09A
:1002E0000E94D600089541E062E082E00E94690029
:1002F00041E067E082E00E94690041E063E083E062
:100300000E9469000895882319F08130C9F008958A
:1003100041E065E081E00E94690040E066E081E044
:100320000E94690041E067E081E00E94690041E0CD
:1003300064E081E00E9469008DB183658DB9089504
:1003400040E065E081E00E94690041E066E081E014
:100350000E94690040E067E081E00E94690040E09F
:1003600064E081E00E9469008DB183648DB90895D5
:10037000779BFECF2FB1FC01208381E00895F89494
:02038000FFCFAD
:00000001FF
