:100000000C942A000C9434000C9434000C943400AA
:100010000C9434000C9434000C9434000C94340090
:100020000C9434000C9434000C9434000C94340080
:100030000C9434000C9434000C9434000C94340070
:100040000C9434000C9434000C9434000C94340060
:100050000C94340011241FBECFE5D8E0DEBFCDBF25
:100060000E9436000C940F010C940000CF93DF9394
:100070001F92CDB7DEB70E94F40080E00E94BB0063
:100080001982CE0101960E9408018823D1F388B31A
:100090008F6E88BB89810E94F000F3CF813001F11F
:1000A00030F08230B1F1833009F44CC00895411131
:1000B0000CC02AB381E090E002C0880F991F6A95B6
:1000C000E2F7809582238ABB08952AB381E090E00D
:1000D00002C0880F991F6A95E2F7822B8ABB0895A8
:1000E00041110CC027B381E090E002C0880F991F36
:1000F0006A95E2F78095822387BB089527B381E054
:1001000090E002C0880F991F6A95E2F7822B87BBA7
:10011000089541110CC024B381E090E002C0880F23
:10012000991F6A95E2F78095822384BB089524B3D2
:1001300081E090E002C0880F991F6A95E2F7822B58
:1001400084BB089541110CC021B381E090E002C04E
:10015000880F991F6A95E2F78095822381BB0895E5
:1001600021B381E090E002C0880F991F6A95E2F701
:10017000822B81BB0895882319F08130C9F008953E
:1001800041E065E081E00E944E0040E066E081E0F1
:100190000E944E0041E067E081E00E944E0041E095
:1001A00064E081E00E944E008DB183658DB90895B1
:1001B00040E065E081E00E944E0041E066E081E0C1
:1001C0000E944E0040E067E081E00E944E0040E067
:1001D00064E081E00E944E008DB183648DB9089582
:1001E0008FB9779BFECF089540E060E083E00E94E6
:1001F0004E0041E060E083E00E944E008AB18861D9
:100200008AB980B5866880BD87E689B910BC089533
:100210005F9BFECF2CB1FC01208381E00895F89410
:02022000FFCF0E
:00000001FF
